:020000040800F2
:1000000000200020850200081100000813000008ED
:1000100070477047024BB3FBF1F39BB2038170470B
:1000200000127A00838919B19BB243F4807303E014
:1000300023F480731B041B0C8381704729B9038A46
:1000400023F400531B041B0C0DE0012905D1038A86
:1000500023F400531B041B0C11E0022909D1038A6D
:100060009BB243F400530382038A9BB243F4805350
:100070000BE003290AD1038A9BB243F400530382A5
:10008000038A23F480531B041B0C038270477047C0
:100090000B4610B55C1A944206D204882406FCD59F
:1000A00013F8014B8480F5E710BD03881B06FCD5CF
:1000B00089B28180704703889B06FCD58088C0B2D6
:1000C000704783899BB243F020038381054B98429C
:1000D00001D1202203E0044B984202D14022034B7D
:1000E0005A607047003801400044004000E100E0E1
:1000F000394B984213D103F558439A6942F4804230
:100100009A619A6942F004029A61A3F584335A68AD
:1001100022F040025A605A6842F0B0023CE02F4B95
:10012000984223D103F5E633DA6942F40032DA610A
:100130009A6942F004029A61A3F584331A6822F4A2
:1001400080621A601A6842F430621A601A6822F4F7
:1001500080421A601A6842F400421A601A6822F457
:1001600040521A601A6942F0080225E01C4B98427E
:1001700031D103F5E433DA6942F48022DA619A6915
:1001800042F010029A61A3F580335A6822F480622B
:100190005A605A6842F430625A605A6822F48062A7
:1001A0005A605A6842F400625A605A6822F44072F7
:1001B0005A601A6942F480621A614FF400538381D5
:1001C00040F24133038183899BB243F00C03838166
:1001D00000230382838270470038014000440040BE
:1001E0000048004082B000280BDD41F253730193B8
:1001F000019B5A1E002B019201DD00BFF8E7013878
:10020000F1E702B07047034B013B01D000BFFBE7B1
:10021000704700BFA18601007047FEE7FEE7FEE7DA
:10022000FEE77047704770477047084B4FF44072C5
:10023000DA60074A07499388DBB28B80138823F082
:1002400020031B041B0C1380704700BF00100140EB
:100250000038014000440040074B4FF44072DA6020
:10026000064A07499388DBB28B80138823F020036A
:100270001B041B0C13807047001001400044004019
:040280000038014001
:10028400154A08B59369154C43F01403936111237F
:100294006360134E134B0422134D1A603046FFF76C
:1002A40025FF2846FFF722FF40F2413333814523DF
:1002B40030462B81FFF703FF2846FFF700FF4FF47A
:1002C4008073E3603220FFF78BFF4FF40073E36029
:1002D4003220FFF785FFF2E70010024000100140D2
:0C02E400003801400008014000440040C8
:0400000508000000EF
:00000001FF
