:020000040800F2
:10000000002000205500000811000008130000081F
:100010007047704770477047704770477047704728
:1000200082B000280BDD41F253730193019B5A1EED
:10003000002B019201DD00BFF8E70138F1E702B0C3
:100040007047034B013B01D000BFFBE7704700BF87
:04005000A186010084
:100054000C4A08B593690C4C43F0140393611123C3
:1000640063600A4B04221A604FF48073E3606420D7
:10007400FFF7D4FF4FF40073E3606420FFF7CEFF73
:10008400F2E700BF001002400010014000080140E8
:0400000508000000EF
:00000001FF
