:020000040800F2
:1000000000200020D501000811000008130000089E
:1000100070477047024BB3FBF1F39BB2038170470B
:1000200000127A00838919B19BB243F4807303E014
:1000300023F480731B041B0C8381704729B9038A46
:1000400023F400531B041B0C0DE0012905D1038A86
:1000500023F400531B041B0C11E0022909D1038A6D
:100060009BB243F400530382038A9BB243F4805350
:100070000BE003290AD1038A9BB243F400530382A5
:10008000038A23F480531B041B0C038270477047C0
:100090000B4610B55C1A944206D204882406FCD59F
:1000A00013F8014B8480F5E710BD3A4B984213D109
:1000B00003F558439A6942F480429A619A6942F082
:1000C00004029A61A3F584335A6822F040025A6010
:1000D0005A6842F0B0023CE02F4B984223D103F51E
:1000E000E633DA6942F40032DA619A6942F00402D6
:1000F0009A61A3F584331A6822F480621A601A6840
:1001000042F430621A601A6822F480421A601A6857
:1001100042F400421A601A6822F440521A601A69C6
:1001200042F0080225E01D4B984231D103F5E4333B
:10013000DA6942F48022DA619A6942F010029A6127
:10014000A3F580335A6822F480625A605A6842F4F8
:1001500030625A605A6822F480625A605A6842F4E7
:1001600000625A605A6822F440725A601A6942F476
:1001700080621A614FF40053838140F2413303815E
:1001800083899BB243F00C03838100230382838223
:10019000704700BF00380140004400400048004064
:1001A00082B000280BDD41F253730193019B5A1E6C
:1001B000002B019201DD00BFF8E70138F1E702B042
:1001C0007047034B013B01D000BFFBE7704700BF06
:0401D000A186010003
:1001D400164A13B59369164C43F014039361112323
:1001E4006360144B04221A601348FFF75CFF134842
:1001F400FFF759FF6B46124A1068516803C34FF466
:100204008073E3606420FFF7C9FF4FF40073E36079
:100214006420FFF7C3FF694607480722FFF736FF4C
:10022400064808490722FFF731FFE8E700100240BB
:100234000010014000080140003801400044004023
:08024400540200084C020008FE
:10024C00576F726C640A0D0048656C6C6F0A0D0078
:0400000508000000EF
:00000001FF
